{
  "address": "0xfE8fE7B3BcE21A8980C6f50F11574f6fC1172217",
  "abi": [
    {
      "inputs": [
        {
          "internalType": "address",
          "name": "_tokenAddress",
          "type": "address"
        }
      ],
      "stateMutability": "nonpayable",
      "type": "constructor"
    },
    {
      "inputs": [
        {
          "internalType": "string",
          "name": "",
          "type": "string"
        }
      ],
      "name": "EmptyStringError",
      "type": "error"
    },
    {
      "inputs": [
        {
          "internalType": "string",
          "name": "",
          "type": "string"
        }
      ],
      "name": "InvalidAmountError",
      "type": "error"
    },
    {
      "inputs": [],
      "name": "NoFundsToClaimError",
      "type": "error"
    },
    {
      "inputs": [],
      "name": "NotPetitionAdministratorError",
      "type": "error"
    },
    {
      "inputs": [],
      "name": "PetitionAlreadySignedError",
      "type": "error"
    },
    {
      "inputs": [],
      "name": "PetitionEndedError",
      "type": "error"
    },
    {
      "inputs": [],
      "name": "PetitionInProgressError",
      "type": "error"
    },
    {
      "inputs": [],
      "name": "PetitionNotExistsError",
      "type": "error"
    },
    {
      "inputs": [],
      "name": "PetitionNotSignedError",
      "type": "error"
    },
    {
      "anonymous": false,
      "inputs": [
        {
          "indexed": true,
          "internalType": "uint256",
          "name": "petitionId",
          "type": "uint256"
        },
        {
          "indexed": true,
          "internalType": "address",
          "name": "donor",
          "type": "address"
        },
        {
          "indexed": false,
          "internalType": "uint256",
          "name": "amount",
          "type": "uint256"
        }
      ],
      "name": "DonationMade",
      "type": "event"
    },
    {
      "anonymous": false,
      "inputs": [
        {
          "indexed": true,
          "internalType": "uint256",
          "name": "petitionId",
          "type": "uint256"
        },
        {
          "indexed": true,
          "internalType": "address",
          "name": "creator",
          "type": "address"
        },
        {
          "indexed": false,
          "internalType": "uint256",
          "name": "amount",
          "type": "uint256"
        }
      ],
      "name": "FundsClaimed",
      "type": "event"
    },
    {
      "anonymous": false,
      "inputs": [
        {
          "indexed": true,
          "internalType": "uint256",
          "name": "petitionId",
          "type": "uint256"
        },
        {
          "indexed": true,
          "internalType": "address",
          "name": "creator",
          "type": "address"
        },
        {
          "indexed": false,
          "internalType": "string",
          "name": "title",
          "type": "string"
        },
        {
          "indexed": false,
          "internalType": "string",
          "name": "description",
          "type": "string"
        },
        {
          "indexed": false,
          "internalType": "uint256",
          "name": "goalSignatures",
          "type": "uint256"
        }
      ],
      "name": "PetitionCreated",
      "type": "event"
    },
    {
      "anonymous": false,
      "inputs": [
        {
          "indexed": true,
          "internalType": "uint256",
          "name": "petitionId",
          "type": "uint256"
        },
        {
          "indexed": true,
          "internalType": "address",
          "name": "creator",
          "type": "address"
        },
        {
          "indexed": false,
          "internalType": "uint256",
          "name": "signatures",
          "type": "uint256"
        },
        {
          "indexed": false,
          "internalType": "uint256",
          "name": "goalSignatures",
          "type": "uint256"
        }
      ],
      "name": "PetitionEnded",
      "type": "event"
    },
    {
      "anonymous": false,
      "inputs": [
        {
          "indexed": true,
          "internalType": "uint256",
          "name": "petitionId",
          "type": "uint256"
        },
        {
          "indexed": true,
          "internalType": "address",
          "name": "creator",
          "type": "address"
        },
        {
          "indexed": false,
          "internalType": "uint256",
          "name": "signatures",
          "type": "uint256"
        },
        {
          "indexed": false,
          "internalType": "uint256",
          "name": "goalSignatures",
          "type": "uint256"
        }
      ],
      "name": "PetitionGoalReached",
      "type": "event"
    },
    {
      "anonymous": false,
      "inputs": [
        {
          "indexed": true,
          "internalType": "uint256",
          "name": "petitionId",
          "type": "uint256"
        },
        {
          "indexed": true,
          "internalType": "address",
          "name": "signer",
          "type": "address"
        }
      ],
      "name": "PetitionSigned",
      "type": "event"
    },
    {
      "inputs": [
        {
          "internalType": "uint256",
          "name": "_petitionId",
          "type": "uint256"
        }
      ],
      "name": "claimFunds",
      "outputs": [],
      "stateMutability": "nonpayable",
      "type": "function"
    },
    {
      "inputs": [
        {
          "internalType": "uint256",
          "name": "_petitionId",
          "type": "uint256"
        }
      ],
      "name": "closePetition",
      "outputs": [],
      "stateMutability": "nonpayable",
      "type": "function"
    },
    {
      "inputs": [
        {
          "internalType": "string",
          "name": "_title",
          "type": "string"
        },
        {
          "internalType": "string",
          "name": "_description",
          "type": "string"
        },
        {
          "internalType": "uint256",
          "name": "_goalSignatures",
          "type": "uint256"
        }
      ],
      "name": "createPetition",
      "outputs": [
        {
          "internalType": "uint256",
          "name": "",
          "type": "uint256"
        }
      ],
      "stateMutability": "nonpayable",
      "type": "function"
    },
    {
      "inputs": [
        {
          "internalType": "uint256",
          "name": "_petitionId",
          "type": "uint256"
        },
        {
          "internalType": "uint256",
          "name": "_amount",
          "type": "uint256"
        }
      ],
      "name": "donateToPetition",
      "outputs": [],
      "stateMutability": "nonpayable",
      "type": "function"
    },
    {
      "inputs": [],
      "name": "getMaxPetitionsIds",
      "outputs": [
        {
          "internalType": "uint256",
          "name": "",
          "type": "uint256"
        }
      ],
      "stateMutability": "view",
      "type": "function"
    },
    {
      "inputs": [
        {
          "internalType": "uint256",
          "name": "_petitionId",
          "type": "uint256"
        }
      ],
      "name": "getPetitionCreator",
      "outputs": [
        {
          "internalType": "address",
          "name": "",
          "type": "address"
        }
      ],
      "stateMutability": "view",
      "type": "function"
    },
    {
      "inputs": [
        {
          "internalType": "uint256",
          "name": "_petitionId",
          "type": "uint256"
        }
      ],
      "name": "getPetitionDescription",
      "outputs": [
        {
          "internalType": "string",
          "name": "",
          "type": "string"
        }
      ],
      "stateMutability": "view",
      "type": "function"
    },
    {
      "inputs": [
        {
          "internalType": "uint256",
          "name": "_petitionId",
          "type": "uint256"
        }
      ],
      "name": "getPetitionEnded",
      "outputs": [
        {
          "internalType": "bool",
          "name": "",
          "type": "bool"
        }
      ],
      "stateMutability": "view",
      "type": "function"
    },
    {
      "inputs": [
        {
          "internalType": "uint256",
          "name": "_petitionId",
          "type": "uint256"
        }
      ],
      "name": "getPetitionFounds",
      "outputs": [
        {
          "internalType": "uint256",
          "name": "",
          "type": "uint256"
        }
      ],
      "stateMutability": "view",
      "type": "function"
    },
    {
      "inputs": [
        {
          "internalType": "uint256",
          "name": "_petitionId",
          "type": "uint256"
        }
      ],
      "name": "getPetitionGoalSignatures",
      "outputs": [
        {
          "internalType": "uint256",
          "name": "",
          "type": "uint256"
        }
      ],
      "stateMutability": "view",
      "type": "function"
    },
    {
      "inputs": [
        {
          "internalType": "uint256",
          "name": "_petitionId",
          "type": "uint256"
        }
      ],
      "name": "getPetitionSignatures",
      "outputs": [
        {
          "internalType": "uint256",
          "name": "",
          "type": "uint256"
        }
      ],
      "stateMutability": "view",
      "type": "function"
    },
    {
      "inputs": [
        {
          "internalType": "uint256",
          "name": "_petitionId",
          "type": "uint256"
        }
      ],
      "name": "getPetitionTitle",
      "outputs": [
        {
          "internalType": "string",
          "name": "",
          "type": "string"
        }
      ],
      "stateMutability": "view",
      "type": "function"
    },
    {
      "inputs": [
        {
          "internalType": "address",
          "name": "_user",
          "type": "address"
        }
      ],
      "name": "getUserPetitionsCreated",
      "outputs": [
        {
          "internalType": "uint256[]",
          "name": "",
          "type": "uint256[]"
        }
      ],
      "stateMutability": "view",
      "type": "function"
    },
    {
      "inputs": [
        {
          "internalType": "address",
          "name": "_user",
          "type": "address"
        }
      ],
      "name": "getUserPetitionsSigned",
      "outputs": [
        {
          "internalType": "uint256[]",
          "name": "",
          "type": "uint256[]"
        }
      ],
      "stateMutability": "view",
      "type": "function"
    },
    {
      "inputs": [],
      "name": "petitionId",
      "outputs": [
        {
          "internalType": "uint256",
          "name": "",
          "type": "uint256"
        }
      ],
      "stateMutability": "view",
      "type": "function"
    },
    {
      "inputs": [
        {
          "internalType": "uint256",
          "name": "",
          "type": "uint256"
        }
      ],
      "name": "petitions",
      "outputs": [
        {
          "internalType": "address",
          "name": "creator",
          "type": "address"
        },
        {
          "internalType": "string",
          "name": "title",
          "type": "string"
        },
        {
          "internalType": "string",
          "name": "description",
          "type": "string"
        },
        {
          "internalType": "uint256",
          "name": "signatures",
          "type": "uint256"
        },
        {
          "internalType": "uint256",
          "name": "goalSignatures",
          "type": "uint256"
        },
        {
          "internalType": "uint256",
          "name": "founds",
          "type": "uint256"
        },
        {
          "internalType": "bool",
          "name": "ended",
          "type": "bool"
        }
      ],
      "stateMutability": "view",
      "type": "function"
    },
    {
      "inputs": [
        {
          "internalType": "uint256",
          "name": "_petitionId",
          "type": "uint256"
        },
        {
          "internalType": "string",
          "name": "_description",
          "type": "string"
        }
      ],
      "name": "setPetitionDescription",
      "outputs": [],
      "stateMutability": "nonpayable",
      "type": "function"
    },
    {
      "inputs": [
        {
          "internalType": "uint256",
          "name": "_petitionId",
          "type": "uint256"
        },
        {
          "internalType": "uint256",
          "name": "_goalSignatures",
          "type": "uint256"
        }
      ],
      "name": "setPetitionGoalSignatures",
      "outputs": [],
      "stateMutability": "nonpayable",
      "type": "function"
    },
    {
      "inputs": [
        {
          "internalType": "uint256",
          "name": "_petitionId",
          "type": "uint256"
        }
      ],
      "name": "signPetition",
      "outputs": [],
      "stateMutability": "nonpayable",
      "type": "function"
    },
    {
      "inputs": [],
      "name": "tokenAddress",
      "outputs": [
        {
          "internalType": "address",
          "name": "",
          "type": "address"
        }
      ],
      "stateMutability": "view",
      "type": "function"
    },
    {
      "inputs": [
        {
          "internalType": "address",
          "name": "",
          "type": "address"
        },
        {
          "internalType": "uint256",
          "name": "",
          "type": "uint256"
        }
      ],
      "name": "usersPetitionsCreated",
      "outputs": [
        {
          "internalType": "uint256",
          "name": "",
          "type": "uint256"
        }
      ],
      "stateMutability": "view",
      "type": "function"
    },
    {
      "inputs": [
        {
          "internalType": "address",
          "name": "",
          "type": "address"
        },
        {
          "internalType": "uint256",
          "name": "",
          "type": "uint256"
        }
      ],
      "name": "usersPetitionsSigned",
      "outputs": [
        {
          "internalType": "uint256",
          "name": "",
          "type": "uint256"
        }
      ],
      "stateMutability": "view",
      "type": "function"
    }
  ],
  "transactionHash": "0x58e8e46fee28b37d1ccc98cc25744c5771c02dfbb23034bc217aba5722b6a611",
  "args": [
    "0xA5e9aC910d6f8466C84a4d2836674b2E4bC7080E"
  ],
  "numDeployments": 3,
  "solcInputHash": "2d4b67fcc6f6f79aae90e3fbfe0d84c8",
  "bytecode": "0x608060405234801561001057600080fd5b5060405161162e38038061162e83398101604081905261002f91610058565b600180546001600160a01b0319166001600160a01b039290921691909117905560008055610088565b60006020828403121561006a57600080fd5b81516001600160a01b038116811461008157600080fd5b9392505050565b611597806100976000396000f3fe608060405234801561001057600080fd5b50600436106101425760003560e01c8063704a1b4d116100b85780639ae2445d1161007c5780639ae2445d146102f25780639d76ea5814610315578063c6cdf62714610328578063ce5f62cd1461033b578063dcad018014610371578063f345a9971461038457600080fd5b8063704a1b4d1461029157806372930b4f146102b1578063888b093b146102b9578063990627ec146102cc5780639a03aad2146102df57600080fd5b806343488ba91161010a57806343488ba9146101d45780634b6346cb146101e75780634eb1d6b81461020a57806355dc82a21461024b5780636bc2fee81461025e5780636fc9b3f51461027e57600080fd5b8063064d6ec7146101475780630f5970471461016d5780631b55e33814610176578063388e586a1461018b5780633ad50ded146101ae575b600080fd5b61015a6101553660046110a2565b610397565b6040519081526020015b60405180910390f35b61015a60005481565b6101896101843660046110cc565b6103c8565b005b61015a6101993660046110cc565b60009081526002602052604090206003015490565b6101c16101bc3660046110cc565b6105b6565b604051610164979695949392919061112b565b6101896101e236600461122d565b61070f565b61015a6101f53660046110cc565b60009081526002602052604090206004015490565b6102336102183660046110cc565b6000908152600260205260409020546001600160a01b031690565b6040516001600160a01b039091168152602001610164565b61015a6102593660046110a2565b6107d3565b61027161026c366004611274565b6107ef565b6040516101649190611296565b61027161028c366004611274565b61085b565b6102a461029f3660046110cc565b6108c5565b60405161016491906112da565b60005461015a565b6102a46102c73660046110cc565b610960565b61015a6102da3660046112ed565b610983565b6101896102ed36600461135a565b610b08565b61015a6103003660046110cc565b60009081526002602052604090206005015490565b600154610233906001600160a01b031681565b61018961033636600461135a565b610d17565b6103616103493660046110cc565b60009081526002602052604090206007015460ff1690565b6040519015158152602001610164565b61018961037f3660046110cc565b610dcf565b6101896103923660046110cc565b610f67565b600460205281600052604060002081815481106103b357600080fd5b90600052602060002001600091509150505481565b6000818152600260205260408120600401548291036103fa5760405163e067d20760e01b815260040160405180910390fd5b600082815260026020526040902060070154829060ff1661042e57604051634c8053e760e11b815260040160405180910390fd5b60008381526002602052604090205483906001600160a01b03163314610467576040516392cfabc760e01b815260040160405180910390fd5b6000848152600260205260409020600501546104965760405163ced114eb60e01b815260040160405180910390fd5b60015460008581526002602052604080822060050154905163a9059cbb60e01b8152336004820152602481019190915290916001600160a01b03169063a9059cbb906044016020604051808303816000875af11580156104fa573d6000803e3d6000fd5b505050506040513d601f19601f8201168201806040525081019061051e919061137c565b9050806105645760405162461bcd60e51b815260206004820152600f60248201526e151c985b9cd9995c8819985a5b1959608a1b60448201526064015b60405180910390fd5b600085815260026020908152604080832060050183905551918252339187917fa4eb50103b0591feb0bc913f479d92af5eb7ea33e8c397b49bab52ce6af26cb591015b60405180910390a35050505050565b600260205260009081526040902080546001820180546001600160a01b0390921692916105e29061139e565b80601f016020809104026020016040519081016040528092919081815260200182805461060e9061139e565b801561065b5780601f106106305761010080835404028352916020019161065b565b820191906000526020600020905b81548152906001019060200180831161063e57829003601f168201915b5050505050908060020180546106709061139e565b80601f016020809104026020016040519081016040528092919081815260200182805461069c9061139e565b80156106e95780601f106106be576101008083540402835291602001916106e9565b820191906000526020600020905b8154815290600101906020018083116106cc57829003601f168201915b505050506003830154600484015460058501546007909501549394919390925060ff1687565b6000828152600260205260408120600401548391036107415760405163e067d20760e01b815260040160405180910390fd5b60008381526002602052604090205483906001600160a01b0316331461077a576040516392cfabc760e01b815260040160405180910390fd5b600084815260026020526040902060070154849060ff16156107af5760405163dd6001ad60e01b815260040160405180910390fd5b6000858152600260208190526040909120016107cb8582611423565b505050505050565b600360205281600052604060002081815481106103b357600080fd5b6001600160a01b03811660009081526004602090815260409182902080548351818402810184019094528084526060939283018282801561084f57602002820191906000526020600020905b81548152602001906001019080831161083b575b50505050509050919050565b6001600160a01b03811660009081526003602090815260409182902080548351818402810184019094528084526060939283018282801561084f576020028201919060005260206000209081548152602001906001019080831161083b5750505050509050919050565b60008181526002602052604090206001018054606091906108e59061139e565b80601f01602080910402602001604051908101604052809291908181526020018280546109119061139e565b801561084f5780601f106109335761010080835404028352916020019161084f565b820191906000526020600020905b8154815290600101906020018083116109415750939695505050505050565b60606002600083815260200190815260200160002060020180546108e59061139e565b600083516000148061099457508251155b156109d7576040516305aa1b1b60e11b815260206004820152601260248201527132b6b83a3c9039ba3934b7339032b93937b960711b604482015260640161055b565b60008211610a1f57604051630a11dbcf60e11b815260206004820152601460248201527334b73b30b634b21030b6b7bab73a1032b93937b960611b604482015260640161055b565b600080549080610a2e836114f9565b90915550506000805481526002602052604080822080546001600160a01b03191633179055815482529020600101610a668582611423565b5060008054815260026020819052604090912001610a848482611423565b506000805481526002602090815260408083206004018590553380845260038352818420845481546001810183559186529385200192909255915491519091907f98acdb43185fdb133376bd108d5907728ba783ab8330e33f6f8ae0895c5c788190610af590889088908890611512565b60405180910390a3506000549392505050565b600082815260026020526040812060040154839103610b3a5760405163e067d20760e01b815260040160405180910390fd5b600083815260026020526040902060070154839060ff1615610b6f5760405163dd6001ad60e01b815260040160405180910390fd5b6000848152600260209081526040808320338452600601909152902054849060ff16610bae5760405163a7cafd8b60e01b815260040160405180910390fd5b60008411610bf257604051630a11dbcf60e11b815260206004820152601060248201526f34b73b1030b6b7bab73a1032b93937b960811b604482015260640161055b565b6001546040516323b872dd60e01b8152336004820152306024820152604481018690526000916001600160a01b0316906323b872dd906064016020604051808303816000875af1158015610c4a573d6000803e3d6000fd5b505050506040513d601f19601f82011682018060405250810190610c6e919061137c565b905080610caf5760405162461bcd60e51b815260206004820152600f60248201526e151c985b9cd9995c8819985a5b1959608a1b604482015260640161055b565b600086815260026020526040812060058101805491928892610cd2908490611548565b9091555050604051868152339088907fe555da28bdb778f65d22794d88927ebaeca03f7de9d1b7d39245bc8fb5ca078a9060200160405180910390a350505050505050565b600082815260026020526040812060040154839103610d495760405163e067d20760e01b815260040160405180910390fd5b60008381526002602052604090205483906001600160a01b03163314610d82576040516392cfabc760e01b815260040160405180910390fd5b600084815260026020526040902060070154849060ff1615610db75760405163dd6001ad60e01b815260040160405180910390fd5b50505060009182526002602052604090912060040155565b600081815260026020526040812060040154829103610e015760405163e067d20760e01b815260040160405180910390fd5b600082815260026020526040902060070154829060ff1615610e365760405163dd6001ad60e01b815260040160405180910390fd5b6000838152600260209081526040808320338452600601909152902054839060ff1615610e7657604051631b483a3360e31b815260040160405180910390fd5b6000848152600260209081526040808320338452600681019092528220805460ff191660011790556003810180549192610eaf836114f9565b909155505033600081815260046020908152604080832080546001810182559084529183209091018890555187917fa24773234734fa56d66ce98fb6d0c8e4b38c3ce67e8a0cfa10756d0909ba4ed291a38060040154816003015410610f60578054600382015460048301546040516001600160a01b039093169288927fb7ff5370683f578b474a6289ded215f5913bced24422027d0771eb8e06855eeb926105a792918252602082015260400190565b5050505050565b600081815260026020526040812060040154829103610f995760405163e067d20760e01b815260040160405180910390fd5b60008281526002602052604090205482906001600160a01b03163314610fd2576040516392cfabc760e01b815260040160405180910390fd5b600083815260026020526040902060070154839060ff16156110075760405163dd6001ad60e01b815260040160405180910390fd5b6000848152600260205260409081902060078101805460ff191660011790558054600382015460049092015492516001600160a01b039091169287927f11bfd982515160294231d964f3393af4b767234949cadfd816079aabe99eecaa926110789290918252602082015260400190565b60405180910390a350505050565b80356001600160a01b038116811461109d57600080fd5b919050565b600080604083850312156110b557600080fd5b6110be83611086565b946020939093013593505050565b6000602082840312156110de57600080fd5b5035919050565b6000815180845260005b8181101561110b576020818501810151868301820152016110ef565b506000602082860101526020601f19601f83011685010191505092915050565b6001600160a01b038816815260e06020820181905260009061114f908301896110e5565b828103604084015261116181896110e5565b9150508560608301528460808301528360a083015282151560c083015298975050505050505050565b634e487b7160e01b600052604160045260246000fd5b600082601f8301126111b157600080fd5b813567ffffffffffffffff808211156111cc576111cc61118a565b604051601f8301601f19908116603f011681019082821181831017156111f4576111f461118a565b8160405283815286602085880101111561120d57600080fd5b836020870160208301376000602085830101528094505050505092915050565b6000806040838503121561124057600080fd5b82359150602083013567ffffffffffffffff81111561125e57600080fd5b61126a858286016111a0565b9150509250929050565b60006020828403121561128657600080fd5b61128f82611086565b9392505050565b6020808252825182820181905260009190848201906040850190845b818110156112ce578351835292840192918401916001016112b2565b50909695505050505050565b60208152600061128f60208301846110e5565b60008060006060848603121561130257600080fd5b833567ffffffffffffffff8082111561131a57600080fd5b611326878388016111a0565b9450602086013591508082111561133c57600080fd5b50611349868287016111a0565b925050604084013590509250925092565b6000806040838503121561136d57600080fd5b50508035926020909101359150565b60006020828403121561138e57600080fd5b8151801515811461128f57600080fd5b600181811c908216806113b257607f821691505b6020821081036113d257634e487b7160e01b600052602260045260246000fd5b50919050565b601f82111561141e57600081815260208120601f850160051c810160208610156113ff5750805b601f850160051c820191505b818110156107cb5782815560010161140b565b505050565b815167ffffffffffffffff81111561143d5761143d61118a565b6114518161144b845461139e565b846113d8565b602080601f831160018114611486576000841561146e5750858301515b600019600386901b1c1916600185901b1785556107cb565b600085815260208120601f198616915b828110156114b557888601518255948401946001909101908401611496565b50858210156114d35787850151600019600388901b60f8161c191681555b5050505050600190811b01905550565b634e487b7160e01b600052601160045260246000fd5b60006001820161150b5761150b6114e3565b5060010190565b60608152600061152560608301866110e5565b828103602084015261153781866110e5565b915050826040830152949350505050565b8082018082111561155b5761155b6114e3565b9291505056fea2646970667358221220195e9ca65de984dde027c91704a3dc48c114bda41be4484917ed18905990354c64736f6c63430008130033",
  "devdoc": {
    "kind": "dev",
    "methods": {},
    "version": 1
  },
  "userdoc": {
    "kind": "user",
    "methods": {},
    "version": 1
  },
  "storageLayout": {
    "storage": [
      {
        "astId": 158,
        "contract": "contracts/PetitionPlatform.sol:PetitionPlatform",
        "label": "petitionId",
        "offset": 0,
        "slot": "0",
        "type": "t_uint256"
      },
      {
        "astId": 160,
        "contract": "contracts/PetitionPlatform.sol:PetitionPlatform",
        "label": "tokenAddress",
        "offset": 0,
        "slot": "1",
        "type": "t_address"
      },
      {
        "astId": 184,
        "contract": "contracts/PetitionPlatform.sol:PetitionPlatform",
        "label": "petitions",
        "offset": 0,
        "slot": "2",
        "type": "t_mapping(t_uint256,t_struct(Petition)179_storage)"
      },
      {
        "astId": 189,
        "contract": "contracts/PetitionPlatform.sol:PetitionPlatform",
        "label": "usersPetitionsCreated",
        "offset": 0,
        "slot": "3",
        "type": "t_mapping(t_address,t_array(t_uint256)dyn_storage)"
      },
      {
        "astId": 194,
        "contract": "contracts/PetitionPlatform.sol:PetitionPlatform",
        "label": "usersPetitionsSigned",
        "offset": 0,
        "slot": "4",
        "type": "t_mapping(t_address,t_array(t_uint256)dyn_storage)"
      }
    ],
    "types": {
      "t_address": {
        "encoding": "inplace",
        "label": "address",
        "numberOfBytes": "20"
      },
      "t_array(t_uint256)dyn_storage": {
        "base": "t_uint256",
        "encoding": "dynamic_array",
        "label": "uint256[]",
        "numberOfBytes": "32"
      },
      "t_bool": {
        "encoding": "inplace",
        "label": "bool",
        "numberOfBytes": "1"
      },
      "t_mapping(t_address,t_array(t_uint256)dyn_storage)": {
        "encoding": "mapping",
        "key": "t_address",
        "label": "mapping(address => uint256[])",
        "numberOfBytes": "32",
        "value": "t_array(t_uint256)dyn_storage"
      },
      "t_mapping(t_address,t_bool)": {
        "encoding": "mapping",
        "key": "t_address",
        "label": "mapping(address => bool)",
        "numberOfBytes": "32",
        "value": "t_bool"
      },
      "t_mapping(t_uint256,t_struct(Petition)179_storage)": {
        "encoding": "mapping",
        "key": "t_uint256",
        "label": "mapping(uint256 => struct PetitionPlatform.Petition)",
        "numberOfBytes": "32",
        "value": "t_struct(Petition)179_storage"
      },
      "t_string_storage": {
        "encoding": "bytes",
        "label": "string",
        "numberOfBytes": "32"
      },
      "t_struct(Petition)179_storage": {
        "encoding": "inplace",
        "label": "struct PetitionPlatform.Petition",
        "members": [
          {
            "astId": 162,
            "contract": "contracts/PetitionPlatform.sol:PetitionPlatform",
            "label": "creator",
            "offset": 0,
            "slot": "0",
            "type": "t_address"
          },
          {
            "astId": 164,
            "contract": "contracts/PetitionPlatform.sol:PetitionPlatform",
            "label": "title",
            "offset": 0,
            "slot": "1",
            "type": "t_string_storage"
          },
          {
            "astId": 166,
            "contract": "contracts/PetitionPlatform.sol:PetitionPlatform",
            "label": "description",
            "offset": 0,
            "slot": "2",
            "type": "t_string_storage"
          },
          {
            "astId": 168,
            "contract": "contracts/PetitionPlatform.sol:PetitionPlatform",
            "label": "signatures",
            "offset": 0,
            "slot": "3",
            "type": "t_uint256"
          },
          {
            "astId": 170,
            "contract": "contracts/PetitionPlatform.sol:PetitionPlatform",
            "label": "goalSignatures",
            "offset": 0,
            "slot": "4",
            "type": "t_uint256"
          },
          {
            "astId": 172,
            "contract": "contracts/PetitionPlatform.sol:PetitionPlatform",
            "label": "founds",
            "offset": 0,
            "slot": "5",
            "type": "t_uint256"
          },
          {
            "astId": 176,
            "contract": "contracts/PetitionPlatform.sol:PetitionPlatform",
            "label": "signers",
            "offset": 0,
            "slot": "6",
            "type": "t_mapping(t_address,t_bool)"
          },
          {
            "astId": 178,
            "contract": "contracts/PetitionPlatform.sol:PetitionPlatform",
            "label": "ended",
            "offset": 0,
            "slot": "7",
            "type": "t_bool"
          }
        ],
        "numberOfBytes": "256"
      },
      "t_uint256": {
        "encoding": "inplace",
        "label": "uint256",
        "numberOfBytes": "32"
      }
    }
  }
}